:020000040000FA
:1000000042280000000000009000030E91008B1CAD
:10001000332808089E0041308800091C1828013048
:10002000890002308800043089001F1441308800A4
:10003000091D2C2804308900C03088000908890077
:100040008500A0005F3C031C28282008F9202A28EE
:100050002008950041308800891C30280230890032
:100060008B101E0888000B110D308100920B3D286B
:1000700032309200930913088600110E8300900E0F
:10008000100E0900FF3083168700030186008500EB
:1000900083128600850032309200B0308B005530DC
:1000A000031E1030860047308316810083120D3006
:1000B00081002330950003019400F020F6202030C9
:1000C000F9204830F9204F30F9204C30F9204130E8
:1000D000F9202030F9200830F62000308800C030A8
:1000E00089001F1040308800FF30890001308800EF
:1000F000A03089000230880090308900DF20013074
:100100008800013089000230880010308900DF202B
:100110000130880055308900023088001030890095
:10012000DF2001308800AA3089000230880050307A
:100130008900DF2001308800A0308900023088006B
:1001400090308900DF20891FAB28023088005030B2
:100150008900DF209A2801308800013089000230B0
:10016000880010308900DF2001308800A13089002C
:100170000230880090308900DF2002308800203073
:100180008900DF20013088000908553C031DDC2868
:100190000230880020308900DF2001308800090803
:1001A000AA3C031DDC280230880040308900AA30B8
:1001B000850001308F00DB280A308500DE281F1CF7
:1001C000DF281F10080004308C00FF308D00FF3046
:1001D0008E008E0BE9288D0BE7288C0BE528080094
:1001E0008C00803088000C08890008008C00813069
:1001F000F2288C0020308C028230F22015088C000E
:100200008330F220940A14088C008030F2280530E4
:100210008E001C30840020309D000D140008031D4A
:10022000172930308E0B1D08F9208E0A1C29303E0C
:10023000F9200D1030309D0084038E0B0E2908002C
:10024000160EF03803109B009B07E23E9A00323EE8
:10025000980016080F399A079A079807E93E9900FF
:1002600099079907170E0F3999079807990D980D57
:100270009809980D17080F3998079B0D07309C00B7
:100280000A3098079903031C412999079A03031C14
:1002900045299A079B03031C49299B079C03031CC0
:0802A0004D29003400000000AC
:00000001FF
